{
  "contractName": "Crowdfunding",
  "abi": [
    {
      "inputs": [
        {
          "internalType": "uint256",
          "name": "_goal",
          "type": "uint256"
        },
        {
          "internalType": "uint256",
          "name": "_duration",
          "type": "uint256"
        }
      ],
      "stateMutability": "nonpayable",
      "type": "constructor"
    },
    {
      "anonymous": false,
      "inputs": [
        {
          "indexed": true,
          "internalType": "address",
          "name": "contributor",
          "type": "address"
        },
        {
          "indexed": false,
          "internalType": "uint256",
          "name": "amount",
          "type": "uint256"
        }
      ],
      "name": "ContributionReceived",
      "type": "event"
    },
    {
      "anonymous": false,
      "inputs": [
        {
          "indexed": false,
          "internalType": "uint256",
          "name": "totalRaised",
          "type": "uint256"
        }
      ],
      "name": "GoalReached",
      "type": "event"
    },
    {
      "anonymous": false,
      "inputs": [
        {
          "indexed": true,
          "internalType": "address",
          "name": "contributor",
          "type": "address"
        },
        {
          "indexed": false,
          "internalType": "uint256",
          "name": "amount",
          "type": "uint256"
        }
      ],
      "name": "RefundIssued",
      "type": "event"
    },
    {
      "anonymous": false,
      "inputs": [
        {
          "indexed": true,
          "internalType": "address",
          "name": "owner",
          "type": "address"
        },
        {
          "indexed": false,
          "internalType": "uint256",
          "name": "amount",
          "type": "uint256"
        }
      ],
      "name": "Withdrawal",
      "type": "event"
    },
    {
      "inputs": [
        {
          "internalType": "address",
          "name": "",
          "type": "address"
        }
      ],
      "name": "contributions",
      "outputs": [
        {
          "internalType": "uint256",
          "name": "",
          "type": "uint256"
        }
      ],
      "stateMutability": "view",
      "type": "function",
      "constant": true
    },
    {
      "inputs": [],
      "name": "deadline",
      "outputs": [
        {
          "internalType": "uint256",
          "name": "",
          "type": "uint256"
        }
      ],
      "stateMutability": "view",
      "type": "function",
      "constant": true
    },
    {
      "inputs": [],
      "name": "goal",
      "outputs": [
        {
          "internalType": "uint256",
          "name": "",
          "type": "uint256"
        }
      ],
      "stateMutability": "view",
      "type": "function",
      "constant": true
    },
    {
      "inputs": [],
      "name": "goalReached",
      "outputs": [
        {
          "internalType": "bool",
          "name": "",
          "type": "bool"
        }
      ],
      "stateMutability": "view",
      "type": "function",
      "constant": true
    },
    {
      "inputs": [],
      "name": "owner",
      "outputs": [
        {
          "internalType": "address",
          "name": "",
          "type": "address"
        }
      ],
      "stateMutability": "view",
      "type": "function",
      "constant": true
    },
    {
      "inputs": [],
      "name": "totalRaised",
      "outputs": [
        {
          "internalType": "uint256",
          "name": "",
          "type": "uint256"
        }
      ],
      "stateMutability": "view",
      "type": "function",
      "constant": true
    },
    {
      "inputs": [],
      "name": "contribute",
      "outputs": [],
      "stateMutability": "payable",
      "type": "function",
      "payable": true
    },
    {
      "inputs": [],
      "name": "withdraw",
      "outputs": [],
      "stateMutability": "nonpayable",
      "type": "function"
    },
    {
      "inputs": [],
      "name": "refund",
      "outputs": [],
      "stateMutability": "nonpayable",
      "type": "function"
    }
  ],
  "bytecode": "0x60806040523480156200001157600080fd5b50604051620012f2380380620012f2833981810160405281019062000037919062000158565b600082116200007d576040517f08c379a0000000000000000000000000000000000000000000000000000000008152600401620000749062000243565b60405180910390fd5b60008111620000c3576040517f08c379a0000000000000000000000000000000000000000000000000000000008152600401620000ba9062000265565b60405180910390fd5b336000806101000a81548173ffffffffffffffffffffffffffffffffffffffff021916908373ffffffffffffffffffffffffffffffffffffffff16021790555081600181905550804262000118919062000298565b6002819055506000600460006101000a81548160ff021916908315150217905550505062000348565b60008151905062000152816200032e565b92915050565b600080604083850312156200016c57600080fd5b60006200017c8582860162000141565b92505060206200018f8582860162000141565b9150509250929050565b6000620001a8601e8362000287565b91507f476f616c206d7573742062652067726561746572207468616e207a65726f00006000830152602082019050919050565b6000620001ea60228362000287565b91507f4475726174696f6e206d7573742062652067726561746572207468616e207a6560008301527f726f0000000000000000000000000000000000000000000000000000000000006020830152604082019050919050565b600060208201905081810360008301526200025e8162000199565b9050919050565b600060208201905081810360008301526200028081620001db565b9050919050565b600082825260208201905092915050565b6000620002a582620002f5565b9150620002b283620002f5565b9250827fffffffffffffffffffffffffffffffffffffffffffffffffffffffffffffffff03821115620002ea57620002e9620002ff565b5b828201905092915050565b6000819050919050565b7f4e487b7100000000000000000000000000000000000000000000000000000000600052601160045260246000fd5b6200033981620002f5565b81146200034557600080fd5b50565b610f9a80620003586000396000f3fe6080604052600436106100865760003560e01c8063590e1ae311610059578063590e1ae3146101355780637d3d65221461014c5780638da5cb5b14610177578063c5c4744c146101a2578063d7bb99ba146101cd57610086565b806329dcb0cf1461008b5780633ccfd60b146100b657806340193883146100cd57806342e94c90146100f8575b600080fd5b34801561009757600080fd5b506100a06101d7565b6040516100ad9190610e49565b60405180910390f35b3480156100c257600080fd5b506100cb6101dd565b005b3480156100d957600080fd5b506100e2610441565b6040516100ef9190610e49565b60405180910390f35b34801561010457600080fd5b5061011f600480360381019061011a9190610910565b610447565b60405161012c9190610e49565b60405180910390f35b34801561014157600080fd5b5061014a61045f565b005b34801561015857600080fd5b506101616106fd565b60405161016e9190610cee565b60405180910390f35b34801561018357600080fd5b5061018c610710565b6040516101999190610cd3565b60405180910390f35b3480156101ae57600080fd5b506101b7610734565b6040516101c49190610e49565b60405180910390f35b6101d561073a565b005b60025481565b60008054906101000a900473ffffffffffffffffffffffffffffffffffffffff1673ffffffffffffffffffffffffffffffffffffffff163373ffffffffffffffffffffffffffffffffffffffff161461026b576040517f08c379a000000000000000000000000000000000000000000000000000000000815260040161026290610d09565b60405180910390fd5b600460009054906101000a900460ff166102ba576040517f08c379a00000000000000000000000000000000000000000000000000000000081526004016102b190610dc9565b60405180910390fd5b600047905060008111610302576040517f08c379a00000000000000000000000000000000000000000000000000000000081526004016102f990610d69565b60405180910390fd5b60008060009054906101000a900473ffffffffffffffffffffffffffffffffffffffff1673ffffffffffffffffffffffffffffffffffffffff168260405161034990610cbe565b60006040518083038185875af1925050503d8060008114610386576040519150601f19603f3d011682016040523d82523d6000602084013e61038b565b606091505b50509050806103cf576040517f08c379a00000000000000000000000000000000000000000000000000000000081526004016103c690610e09565b60405180910390fd5b60008054906101000a900473ffffffffffffffffffffffffffffffffffffffff1673ffffffffffffffffffffffffffffffffffffffff167f7fcf532c15f0a6db0bd6d0e038bea71d30d808c7d98cb3bf7268a95bf5081b65836040516104359190610e49565b60405180910390a25050565b60015481565b60036020528060005260406000206000915090505481565b6002544210156104a4576040517f08c379a000000000000000000000000000000000000000000000000000000000815260040161049b90610da9565b60405180910390fd5b6000600360003373ffffffffffffffffffffffffffffffffffffffff1673ffffffffffffffffffffffffffffffffffffffff1681526020019081526020016000205411610526576040517f08c379a000000000000000000000000000000000000000000000000000000000815260040161051d90610d29565b60405180910390fd5b600460009054906101000a900460ff1615610576576040517f08c379a000000000000000000000000000000000000000000000000000000000815260040161056d90610e29565b60405180910390fd5b6000600360003373ffffffffffffffffffffffffffffffffffffffff1673ffffffffffffffffffffffffffffffffffffffff1681526020019081526020016000205490506000600360003373ffffffffffffffffffffffffffffffffffffffff1673ffffffffffffffffffffffffffffffffffffffff1681526020019081526020016000208190555060003373ffffffffffffffffffffffffffffffffffffffff168260405161062590610cbe565b60006040518083038185875af1925050503d8060008114610662576040519150601f19603f3d011682016040523d82523d6000602084013e610667565b606091505b50509050806106ab576040517f08c379a00000000000000000000000000000000000000000000000000000000081526004016106a290610d49565b60405180910390fd5b3373ffffffffffffffffffffffffffffffffffffffff167fa171b6942063c6f2800ce40a780edce37baa2b618571b11eedd1e69e626e7d76836040516106f19190610e49565b60405180910390a25050565b600460009054906101000a900460ff1681565b60008054906101000a900473ffffffffffffffffffffffffffffffffffffffff1681565b60055481565b600254421061077e576040517f08c379a000000000000000000000000000000000000000000000000000000000815260040161077590610de9565b60405180910390fd5b600034116107c1576040517f08c379a00000000000000000000000000000000000000000000000000000000081526004016107b890610d89565b60405180910390fd5b34600360003373ffffffffffffffffffffffffffffffffffffffff1673ffffffffffffffffffffffffffffffffffffffff16815260200190815260200160002060008282546108109190610e80565b9250508190555034600560008282546108299190610e80565b92505081905550600154600554101580156108515750600460009054906101000a900460ff16155b156108ab576001600460006101000a81548160ff0219169083151502179055507ffbfd8ab7c24300fa9888cd721c8565a7da56759384781283684dcf7c7c4a846b6005546040516108a29190610e49565b60405180910390a15b3373ffffffffffffffffffffffffffffffffffffffff167f1bb460ccaaf70fbacfec17a376f8acbd278c1405590ffcc8ebe4b88daf4f64ad346040516108f19190610e49565b60405180910390a2565b60008135905061090a81610f4d565b92915050565b60006020828403121561092257600080fd5b6000610930848285016108fb565b91505092915050565b61094281610ed6565b82525050565b61095181610ee8565b82525050565b6000610964602183610e6f565b91507f4f6e6c79206f776e65722063616e2063616c6c20746869732066756e6374696f60008301527f6e000000000000000000000000000000000000000000000000000000000000006020830152604082019050919050565b60006109ca602383610e6f565b91507f596f752068617665206e6f20636f6e747269627574696f6e7320746f2072656660008301527f756e6400000000000000000000000000000000000000000000000000000000006020830152604082019050919050565b6000610a30600d83610e6f565b91507f526566756e64206661696c6564000000000000000000000000000000000000006000830152602082019050919050565b6000610a70602183610e6f565b91507f4e6f2066756e647320617661696c61626c6520666f722077697468647261776160008301527f6c000000000000000000000000000000000000000000000000000000000000006020830152604082019050919050565b6000610ad6602683610e6f565b91507f436f6e747269627574696f6e206d75737420626520677265617465722074686160008301527f6e207a65726f00000000000000000000000000000000000000000000000000006020830152604082019050919050565b6000610b3c601e83610e6f565b91507f46756e64696e6720706572696f64206973206e6f74206f7665722079657400006000830152602082019050919050565b6000610b7c600083610e64565b9150600082019050919050565b6000610b96601083610e6f565b91507f476f616c206e6f742072656163686564000000000000000000000000000000006000830152602082019050919050565b6000610bd6601883610e6f565b91507f46756e64696e6720706572696f642068617320656e64656400000000000000006000830152602082019050919050565b6000610c16601183610e6f565b91507f5769746864726177616c206661696c65640000000000000000000000000000006000830152602082019050919050565b6000610c56602483610e6f565b91507f476f616c20686173206265656e20726561636865642c2063616e6e6f7420726560008301527f66756e64000000000000000000000000000000000000000000000000000000006020830152604082019050919050565b610cb881610f14565b82525050565b6000610cc982610b6f565b9150819050919050565b6000602082019050610ce86000830184610939565b92915050565b6000602082019050610d036000830184610948565b92915050565b60006020820190508181036000830152610d2281610957565b9050919050565b60006020820190508181036000830152610d42816109bd565b9050919050565b60006020820190508181036000830152610d6281610a23565b9050919050565b60006020820190508181036000830152610d8281610a63565b9050919050565b60006020820190508181036000830152610da281610ac9565b9050919050565b60006020820190508181036000830152610dc281610b2f565b9050919050565b60006020820190508181036000830152610de281610b89565b9050919050565b60006020820190508181036000830152610e0281610bc9565b9050919050565b60006020820190508181036000830152610e2281610c09565b9050919050565b60006020820190508181036000830152610e4281610c49565b9050919050565b6000602082019050610e5e6000830184610caf565b92915050565b600081905092915050565b600082825260208201905092915050565b6000610e8b82610f14565b9150610e9683610f14565b9250827fffffffffffffffffffffffffffffffffffffffffffffffffffffffffffffffff03821115610ecb57610eca610f1e565b5b828201905092915050565b6000610ee182610ef4565b9050919050565b60008115159050919050565b600073ffffffffffffffffffffffffffffffffffffffff82169050919050565b6000819050919050565b7f4e487b7100000000000000000000000000000000000000000000000000000000600052601160045260246000fd5b610f5681610ed6565b8114610f6157600080fd5b5056fea2646970667358221220763eba752b6f1d080fda3ae8fe159596874b76f6b55280a96e69166274c4ba7b64736f6c63430008000033",
  "immutableReferences": {},
  "source": "// SPDX-License-Identifier: MIT\r\n// Author: Kelvin Mulei\r\npragma solidity ^0.8.0;\r\n\r\ncontract Crowdfunding {\r\n    // State variables\r\n    address public owner;\r\n    uint public goal;\r\n    uint public deadline;\r\n    mapping(address => uint) public contributions;\r\n    bool public goalReached;\r\n    uint public totalRaised;\r\n\r\n    // Events\r\n    event ContributionReceived(address indexed contributor, uint amount);\r\n    event GoalReached(uint totalRaised);\r\n    event Withdrawal(address indexed owner, uint amount);\r\n    event RefundIssued(address indexed contributor, uint amount);\r\n\r\n    // Constructor\r\n    constructor(uint _goal, uint _duration) {\r\n        require(_goal > 0, \"Goal must be greater than zero\");\r\n        require(_duration > 0, \"Duration must be greater than zero\");\r\n        \r\n        owner = msg.sender;\r\n        goal = _goal;\r\n        deadline = block.timestamp + _duration;\r\n        goalReached = false;\r\n    }\r\n\r\n    modifier onlyOwner() {\r\n        require(msg.sender == owner, \"Only owner can call this function\");\r\n        _;\r\n    }\r\n\r\n    modifier campaignActive() {\r\n        require(block.timestamp < deadline, \"Funding period has ended\");\r\n        _;\r\n    }\r\n\r\n    modifier campaignEnded() {\r\n        require(block.timestamp >= deadline, \"Funding period is not over yet\");\r\n        _;\r\n    }\r\n\r\n    modifier hasContributed() {\r\n        require(contributions[msg.sender] > 0, \"You have no contributions to refund\");\r\n        _;\r\n    }\r\n\r\n    // Function to contribute\r\n    function contribute() public payable campaignActive {\r\n        require(msg.value > 0, \"Contribution must be greater than zero\");\r\n\r\n        contributions[msg.sender] += msg.value;\r\n        totalRaised += msg.value;\r\n\r\n        if (totalRaised >= goal && !goalReached) {\r\n            goalReached = true;\r\n            emit GoalReached(totalRaised);\r\n        }\r\n\r\n        emit ContributionReceived(msg.sender, msg.value);\r\n    }\r\n\r\n    // Withdraw function\r\n    function withdraw() public onlyOwner {\r\n        require(goalReached, \"Goal not reached\");\r\n        uint amount = address(this).balance;\r\n        require(amount > 0, \"No funds available for withdrawal\");\r\n        \r\n        (bool success, ) = payable(owner).call{value: amount}(\"\");\r\n        require(success, \"Withdrawal failed\");\r\n\r\n        emit Withdrawal(owner, amount);\r\n    }\r\n\r\n    // Refund function\r\n    function refund() public campaignEnded hasContributed {\r\n        require(!goalReached, \"Goal has been reached, cannot refund\");\r\n\r\n        uint contribution = contributions[msg.sender];\r\n        contributions[msg.sender] = 0;\r\n\r\n        (bool success, ) = payable(msg.sender).call{value: contribution}(\"\");\r\n        require(success, \"Refund failed\");\r\n\r\n        emit RefundIssued(msg.sender, contribution);\r\n    }\r\n}\r\n",
  "sourcePath": "C:\\Users\\hp\\Desktop\\crowdfunding\\contracts\\startupFund.sol",
  "compiler": {
    "name": "solc",
    "version": "0.8.0+commit.c7dfd78e.Emscripten.clang"
  },
  "schemaVersion": "3.4.16",
  "updatedAt": "2024-09-17T08:02:09.808Z",
  "networkType": "ethereum",
  "devdoc": {
    "kind": "dev",
    "methods": {},
    "version": 1
  },
  "userdoc": {
    "kind": "user",
    "methods": {},
    "version": 1
  }
}